{
  "contractName": "CatFactoryContract",
  "abi": [
    {
      "anonymous": false,
      "inputs": [
        {
          "indexed": true,
          "internalType": "address",
          "name": "owner",
          "type": "address"
        },
        {
          "indexed": true,
          "internalType": "address",
          "name": "approved",
          "type": "address"
        },
        {
          "indexed": true,
          "internalType": "uint256",
          "name": "tokenId",
          "type": "uint256"
        }
      ],
      "name": "Approval",
      "type": "event"
    },
    {
      "anonymous": false,
      "inputs": [
        {
          "indexed": true,
          "internalType": "address",
          "name": "from",
          "type": "address"
        },
        {
          "indexed": true,
          "internalType": "address",
          "name": "to",
          "type": "address"
        },
        {
          "indexed": true,
          "internalType": "uint256",
          "name": "tokenId",
          "type": "uint256"
        }
      ],
      "name": "Transfer",
      "type": "event"
    },
    {
      "inputs": [],
      "name": "totalSupply",
      "outputs": [
        {
          "internalType": "uint256",
          "name": "",
          "type": "uint256"
        }
      ],
      "stateMutability": "view",
      "type": "function",
      "constant": true
    },
    {
      "inputs": [],
      "name": "name",
      "outputs": [
        {
          "internalType": "string",
          "name": "",
          "type": "string"
        }
      ],
      "stateMutability": "pure",
      "type": "function",
      "constant": true
    },
    {
      "inputs": [],
      "name": "symbol",
      "outputs": [
        {
          "internalType": "string",
          "name": "",
          "type": "string"
        }
      ],
      "stateMutability": "pure",
      "type": "function",
      "constant": true
    },
    {
      "inputs": [
        {
          "internalType": "address",
          "name": "_owner",
          "type": "address"
        }
      ],
      "name": "balanceOf",
      "outputs": [
        {
          "internalType": "uint256",
          "name": "",
          "type": "uint256"
        }
      ],
      "stateMutability": "view",
      "type": "function",
      "constant": true
    },
    {
      "inputs": [
        {
          "internalType": "uint256",
          "name": "_tokenId",
          "type": "uint256"
        }
      ],
      "name": "ownerOf",
      "outputs": [
        {
          "internalType": "address",
          "name": "",
          "type": "address"
        }
      ],
      "stateMutability": "view",
      "type": "function",
      "constant": true
    },
    {
      "inputs": [
        {
          "internalType": "address",
          "name": "_to",
          "type": "address"
        },
        {
          "internalType": "uint256",
          "name": "_tokenId",
          "type": "uint256"
        }
      ],
      "name": "transfer",
      "outputs": [],
      "stateMutability": "view",
      "type": "function",
      "constant": true
    }
  ],
  "bytecode": "0x608060405234801561001057600080fd5b50610928806100206000396000f3fe608060405234801561001057600080fd5b50600436106100625760003560e01c806306fdde031461006757806318160ddd146100855780636352211e146100a357806370a08231146100d357806395d89b4114610103578063a9059cbb14610121575b600080fd5b61006f61013d565b60405161007c9190610650565b60405180910390f35b61008d61017a565b60405161009a91906106f2565b60405180910390f35b6100bd60048036038101906100b89190610525565b610186565b6040516100ca9190610635565b60405180910390f35b6100ed60048036038101906100e891906104b8565b610238565b6040516100fa91906106f2565b60405180910390f35b61010b610281565b6040516101189190610650565b60405180910390f35b61013b600480360381019061013691906104e5565b6102be565b005b60606040518060400160405280600b81526020017f43727970746f4e696e6a61000000000000000000000000000000000000000000815250905090565b60008080549050905090565b6000806002600084815260200190815260200160002060009054906101000a900473ffffffffffffffffffffffffffffffffffffffff169050600073ffffffffffffffffffffffffffffffffffffffff168173ffffffffffffffffffffffffffffffffffffffff16141561022f576040517f08c379a000000000000000000000000000000000000000000000000000000000815260040161022690610692565b60405180910390fd5b80915050919050565b6000600160008373ffffffffffffffffffffffffffffffffffffffff1673ffffffffffffffffffffffffffffffffffffffff168152602001908152602001600020549050919050565b60606040518060400160405280600581526020017f4e494e4a41000000000000000000000000000000000000000000000000000000815250905090565b600073ffffffffffffffffffffffffffffffffffffffff168273ffffffffffffffffffffffffffffffffffffffff161415801561032757503073ffffffffffffffffffffffffffffffffffffffff168273ffffffffffffffffffffffffffffffffffffffff1614155b610366576040517f08c379a000000000000000000000000000000000000000000000000000000000815260040161035d906106d2565b60405180910390fd5b3373ffffffffffffffffffffffffffffffffffffffff168273ffffffffffffffffffffffffffffffffffffffff1614156103d5576040517f08c379a00000000000000000000000000000000000000000000000000000000081526004016103cc90610672565b60405180910390fd5b6103df3382610422565b61041e576040517f08c379a0000000000000000000000000000000000000000000000000000000008152600401610415906106b2565b60405180910390fd5b5050565b60008273ffffffffffffffffffffffffffffffffffffffff166002600084815260200190815260200160002060009054906101000a900473ffffffffffffffffffffffffffffffffffffffff1673ffffffffffffffffffffffffffffffffffffffff1614905092915050565b60008135905061049d816108c4565b92915050565b6000813590506104b2816108db565b92915050565b6000602082840312156104ce576104cd610798565b5b60006104dc8482850161048e565b91505092915050565b600080604083850312156104fc576104fb610798565b5b600061050a8582860161048e565b925050602061051b858286016104a3565b9150509250929050565b60006020828403121561053b5761053a610798565b5b6000610549848285016104a3565b91505092915050565b61055b81610729565b82525050565b600061056c8261070d565b6105768185610718565b9350610586818560208601610765565b61058f8161079d565b840191505092915050565b60006105a7602183610718565b91506105b2826107ae565b604082019050919050565b60006105ca602983610718565b91506105d5826107fd565b604082019050919050565b60006105ed602b83610718565b91506105f88261084c565b604082019050919050565b6000610610601783610718565b915061061b8261089b565b602082019050919050565b61062f8161075b565b82525050565b600060208201905061064a6000830184610552565b92915050565b6000602082019050818103600083015261066a8184610561565b905092915050565b6000602082019050818103600083015261068b8161059a565b9050919050565b600060208201905081810360008301526106ab816105bd565b9050919050565b600060208201905081810360008301526106cb816105e0565b9050919050565b600060208201905081810360008301526106eb81610603565b9050919050565b60006020820190506107076000830184610626565b92915050565b600081519050919050565b600082825260208201905092915050565b60006107348261073b565b9050919050565b600073ffffffffffffffffffffffffffffffffffffffff82169050919050565b6000819050919050565b60005b83811015610783578082015181840152602081019050610768565b83811115610792576000848401525b50505050565b600080fd5b6000601f19601f8301169050919050565b7f4552433732313a2063616e6e6f742073656e6420746f20796f757273656c766560008201527f7300000000000000000000000000000000000000000000000000000000000000602082015250565b7f4552433732313a206f776e657220717565727920666f72206e6f6e657869737460008201527f656e7420746f6b656e0000000000000000000000000000000000000000000000602082015250565b7f4552433732313a20796f7520617265206e6f7420746865206f776e6572206f6660008201527f207468697320746f6b656e000000000000000000000000000000000000000000602082015250565b7f4552433732313a20696e76616c69642061646472657373000000000000000000600082015250565b6108cd81610729565b81146108d857600080fd5b50565b6108e48161075b565b81146108ef57600080fd5b5056fea2646970667358221220adecad5c4a24d63421d800fb900baf261b703245c1b8181be39003ba1fa61ae664736f6c63430008060033",
  "immutableReferences": {},
  "source": "// SPDX-License-Identifier: MIT\npragma solidity ^0.8.0;\n\n// import \"../node_modules/@openzeppelin/contracts/token/ERC721/IERC721.sol\";\n// import \"../node_modules/@openzeppelin/contracts/token/ERC721/extensions/IERC721Metadata.sol\";\n// import \"../node_modules/@openzeppelin/contracts/token/ERC721/extensions/IERC721Enumerable.sol\";\n\nimport \"./IERC721.sol\";\n\ncontract CatFactoryContract is IERC721{\n  string constant _name = \"CryptoNinja\";\n  string constant _symbol = \"NINJA\";\n\n  struct CryptoNinja {\n    uint256 genes;\n    uint64 birthTime;\n    uint32 mumId;\n    uint32 dadId;\n    uint16 generation;\n  }\n\n  //Array with all token ids (index==>token id)\n  CryptoNinja[] private allTokens;\n  //Mapping owner address to token count\n  mapping (address => uint256) private ownerToBalance;\n  // Mapping from token ID to owner address\n  mapping (uint256 => address) private tokenToOwner;\n\n  function totalSupply() public view override returns(uint256){\n    return allTokens.length;\n  }\n\n  function name() external pure override returns (string memory){\n    return _name;\n  } \n\n  function symbol() external pure override returns (string memory){\n    return _symbol;\n  } \n\n  function balanceOf(address _owner) external view override returns(uint256){\n    return ownerToBalance[_owner];\n  }\n\n  function ownerOf(uint256 _tokenId) public view override returns(address){\n    address owner = tokenToOwner[_tokenId];\n    require(owner != address(0), \"ERC721: owner query for nonexistent token\");\n    return owner;\n  }\n\n  function transfer(address _to, uint256 _tokenId) public view override{\n    require(_to != address(0) && _to != address(this), \"ERC721: invalid address\");\n    require(_to != msg.sender, \"ERC721: cannot send to yourselves\");\n    require(_owns(msg.sender, _tokenId), \"ERC721: you are not the owner of this token\");\n  }\n\n  function _transfer(address _from, address _to, uint256 _tokenId) internal{\n    ownerToBalance[_to]++;\n    if(_from != address(0)) {\n      ownerToBalance[_from]--;\n    }\n    tokenToOwner[_tokenId] = _to;\n    emit Transfer(_from, _to, _tokenId);\n  }\n\n  function _owns(address _claimant, uint256 _tokenId) internal view returns(bool){\n    return tokenToOwner[_tokenId] == _claimant;\n  }\n}",
  "sourcePath": "/Users/aliii/Desktop/academy-kitties-template/contracts/CatFactoryContract.sol",
  "compiler": {
    "name": "solc",
    "version": "0.8.6+commit.11564f7e.Emscripten.clang"
  },
  "schemaVersion": "3.4.1",
  "updatedAt": "2021-07-23T00:29:30.680Z",
  "networkType": "ethereum",
  "devdoc": {
    "kind": "dev",
    "methods": {},
    "version": 1
  },
  "userdoc": {
    "kind": "user",
    "methods": {},
    "version": 1
  }
}