{
  "contractName": "Kittycontract",
  "abi": [
    {
      "anonymous": false,
      "inputs": [
        {
          "indexed": true,
          "internalType": "address",
          "name": "owner",
          "type": "address"
        },
        {
          "indexed": true,
          "internalType": "address",
          "name": "approved",
          "type": "address"
        },
        {
          "indexed": true,
          "internalType": "uint256",
          "name": "tokenId",
          "type": "uint256"
        }
      ],
      "name": "Approval",
      "type": "event"
    },
    {
      "anonymous": false,
      "inputs": [
        {
          "indexed": false,
          "internalType": "address",
          "name": "owner",
          "type": "address"
        },
        {
          "indexed": false,
          "internalType": "uint256",
          "name": "kittenId",
          "type": "uint256"
        },
        {
          "indexed": false,
          "internalType": "uint256",
          "name": "mumId",
          "type": "uint256"
        },
        {
          "indexed": false,
          "internalType": "uint256",
          "name": "dadId",
          "type": "uint256"
        },
        {
          "indexed": false,
          "internalType": "uint256",
          "name": "genes",
          "type": "uint256"
        }
      ],
      "name": "Birth",
      "type": "event"
    },
    {
      "anonymous": false,
      "inputs": [
        {
          "indexed": true,
          "internalType": "address",
          "name": "previousOwner",
          "type": "address"
        },
        {
          "indexed": true,
          "internalType": "address",
          "name": "newOwner",
          "type": "address"
        }
      ],
      "name": "OwnershipTransferred",
      "type": "event"
    },
    {
      "anonymous": false,
      "inputs": [
        {
          "indexed": true,
          "internalType": "address",
          "name": "from",
          "type": "address"
        },
        {
          "indexed": true,
          "internalType": "address",
          "name": "to",
          "type": "address"
        },
        {
          "indexed": true,
          "internalType": "uint256",
          "name": "tokenId",
          "type": "uint256"
        }
      ],
      "name": "Transfer",
      "type": "event"
    },
    {
      "inputs": [],
      "name": "CREATION_LIMIT_GEN0",
      "outputs": [
        {
          "internalType": "uint256",
          "name": "",
          "type": "uint256"
        }
      ],
      "stateMutability": "view",
      "type": "function",
      "constant": true
    },
    {
      "inputs": [],
      "name": "gen0Counter",
      "outputs": [
        {
          "internalType": "uint256",
          "name": "",
          "type": "uint256"
        }
      ],
      "stateMutability": "view",
      "type": "function",
      "constant": true
    },
    {
      "inputs": [
        {
          "internalType": "uint256",
          "name": "",
          "type": "uint256"
        }
      ],
      "name": "kittyindexToOwner",
      "outputs": [
        {
          "internalType": "address",
          "name": "",
          "type": "address"
        }
      ],
      "stateMutability": "view",
      "type": "function",
      "constant": true
    },
    {
      "inputs": [],
      "name": "owner",
      "outputs": [
        {
          "internalType": "address",
          "name": "",
          "type": "address"
        }
      ],
      "stateMutability": "view",
      "type": "function",
      "constant": true
    },
    {
      "inputs": [],
      "name": "renounceOwnership",
      "outputs": [],
      "stateMutability": "nonpayable",
      "type": "function"
    },
    {
      "inputs": [
        {
          "internalType": "address",
          "name": "newOwner",
          "type": "address"
        }
      ],
      "name": "transferOwnership",
      "outputs": [],
      "stateMutability": "nonpayable",
      "type": "function"
    },
    {
      "inputs": [
        {
          "internalType": "uint256",
          "name": "_id",
          "type": "uint256"
        }
      ],
      "name": "getKitty",
      "outputs": [
        {
          "internalType": "uint256",
          "name": "genes",
          "type": "uint256"
        },
        {
          "internalType": "uint256",
          "name": "birthTime",
          "type": "uint256"
        },
        {
          "internalType": "uint256",
          "name": "mumId",
          "type": "uint256"
        },
        {
          "internalType": "uint256",
          "name": "dadId",
          "type": "uint256"
        },
        {
          "internalType": "uint256",
          "name": "generation",
          "type": "uint256"
        }
      ],
      "stateMutability": "view",
      "type": "function",
      "constant": true
    },
    {
      "inputs": [
        {
          "internalType": "uint256",
          "name": "_genes",
          "type": "uint256"
        }
      ],
      "name": "createKittyGen0",
      "outputs": [
        {
          "internalType": "uint256",
          "name": "",
          "type": "uint256"
        }
      ],
      "stateMutability": "nonpayable",
      "type": "function"
    },
    {
      "inputs": [
        {
          "internalType": "address",
          "name": "owner",
          "type": "address"
        }
      ],
      "name": "balanceOf",
      "outputs": [
        {
          "internalType": "uint256",
          "name": "balance",
          "type": "uint256"
        }
      ],
      "stateMutability": "view",
      "type": "function",
      "constant": true
    },
    {
      "inputs": [],
      "name": "totalSupply",
      "outputs": [
        {
          "internalType": "uint256",
          "name": "total",
          "type": "uint256"
        }
      ],
      "stateMutability": "view",
      "type": "function",
      "constant": true
    },
    {
      "inputs": [],
      "name": "name",
      "outputs": [
        {
          "internalType": "string",
          "name": "",
          "type": "string"
        }
      ],
      "stateMutability": "pure",
      "type": "function",
      "constant": true
    },
    {
      "inputs": [],
      "name": "symbol",
      "outputs": [
        {
          "internalType": "string",
          "name": "",
          "type": "string"
        }
      ],
      "stateMutability": "pure",
      "type": "function",
      "constant": true
    },
    {
      "inputs": [
        {
          "internalType": "uint256",
          "name": "tokenId",
          "type": "uint256"
        }
      ],
      "name": "ownerOf",
      "outputs": [
        {
          "internalType": "address",
          "name": "",
          "type": "address"
        }
      ],
      "stateMutability": "view",
      "type": "function",
      "constant": true
    },
    {
      "inputs": [
        {
          "internalType": "address",
          "name": "_to",
          "type": "address"
        },
        {
          "internalType": "uint256",
          "name": "_tokenId",
          "type": "uint256"
        }
      ],
      "name": "transfer",
      "outputs": [],
      "stateMutability": "nonpayable",
      "type": "function"
    }
  ],
  "bytecode": "0x608060405234801561001057600080fd5b5060006100216100c460201b60201c565b9050806000806101000a81548173ffffffffffffffffffffffffffffffffffffffff021916908373ffffffffffffffffffffffffffffffffffffffff1602179055508073ffffffffffffffffffffffffffffffffffffffff16600073ffffffffffffffffffffffffffffffffffffffff167f8be0079c531659141344cd1fd0a4f28419497f9722a3daafe3b4186f6b6457e060405160405180910390a3506100cc565b600033905090565b6113f3806100db6000396000f3fe608060405234801561001057600080fd5b50600436106100ea5760003560e01c806395d89b411161008c578063d5a776ca11610066578063d5a776ca1461023b578063e98b7f4d1461026b578063ef5e94aa1461029f578063f2fde38b146102bd576100ea565b806395d89b41146101e3578063a9059cbb14610201578063b48343301461021d576100ea565b80636352211e116100c85780636352211e1461015b57806370a082311461018b578063715018a6146101bb5780638da5cb5b146101c5576100ea565b806306fdde03146100ef57806318160ddd1461010d5780633d1694051461012b575b600080fd5b6100f76102d9565b6040516101049190610fa0565b60405180910390f35b610115610316565b6040516101229190611062565b60405180910390f35b61014560048036038101906101409190610dff565b610323565b6040516101529190610f32565b60405180910390f35b61017560048036038101906101709190610dff565b610356565b6040516101829190610f32565b60405180910390f35b6101a560048036038101906101a09190610d92565b610393565b6040516101b29190611062565b60405180910390f35b6101c36103dc565b005b6101cd610516565b6040516101da9190610f32565b60405180910390f35b6101eb61053f565b6040516101f89190610fa0565b60405180910390f35b61021b60048036038101906102169190610dbf565b61057c565b005b61022561071e565b6040516102329190611062565b60405180910390f35b61025560048036038101906102509190610dff565b610723565b6040516102629190611062565b60405180910390f35b61028560048036038101906102809190610dff565b6107de565b60405161029695949392919061107d565b60405180910390f35b6102a7610894565b6040516102b49190611062565b60405180910390f35b6102d760048036038101906102d29190610d92565b61089a565b005b60606040518060400160405280600d81526020017f43727970746f4b69747469657300000000000000000000000000000000000000815250905090565b6000600180549050905090565b60036020528060005260406000206000915054906101000a900473ffffffffffffffffffffffffffffffffffffffff1681565b60006003600083815260200190815260200160002060009054906101000a900473ffffffffffffffffffffffffffffffffffffffff169050919050565b6000600260008373ffffffffffffffffffffffffffffffffffffffff1673ffffffffffffffffffffffffffffffffffffffff168152602001908152602001600020549050919050565b6103e4610a43565b73ffffffffffffffffffffffffffffffffffffffff16610402610516565b73ffffffffffffffffffffffffffffffffffffffff1614610458576040517f08c379a000000000000000000000000000000000000000000000000000000000815260040161044f90611022565b60405180910390fd5b600073ffffffffffffffffffffffffffffffffffffffff1660008054906101000a900473ffffffffffffffffffffffffffffffffffffffff1673ffffffffffffffffffffffffffffffffffffffff167f8be0079c531659141344cd1fd0a4f28419497f9722a3daafe3b4186f6b6457e060405160405180910390a360008060006101000a81548173ffffffffffffffffffffffffffffffffffffffff021916908373ffffffffffffffffffffffffffffffffffffffff160217905550565b60008060009054906101000a900473ffffffffffffffffffffffffffffffffffffffff16905090565b60606040518060400160405280600581526020017f4e46436154000000000000000000000000000000000000000000000000000000815250905090565b600073ffffffffffffffffffffffffffffffffffffffff168273ffffffffffffffffffffffffffffffffffffffff1614156105ec576040517f08c379a00000000000000000000000000000000000000000000000000000000081526004016105e390610fc2565b60405180910390fd5b6000600260003373ffffffffffffffffffffffffffffffffffffffff1673ffffffffffffffffffffffffffffffffffffffff168152602001908152602001600020541161066e576040517f08c379a000000000000000000000000000000000000000000000000000000000815260040161066590611042565b60405180910390fd5b3373ffffffffffffffffffffffffffffffffffffffff166003600083815260200190815260200160002060009054906101000a900473ffffffffffffffffffffffffffffffffffffffff1673ffffffffffffffffffffffffffffffffffffffff161461070f576040517f08c379a000000000000000000000000000000000000000000000000000000000815260040161070690611002565b60405180910390fd5b61071a338383610a4b565b5050565b600a81565b600061072d610a43565b73ffffffffffffffffffffffffffffffffffffffff1661074b610516565b73ffffffffffffffffffffffffffffffffffffffff16146107a1576040517f08c379a000000000000000000000000000000000000000000000000000000000815260040161079890611022565b60405180910390fd5b600a600454106107b057600080fd5b600460008154809291906107c3906111b9565b91905055506107d760008060008533610bdc565b9050919050565b600080600080600080600187815481106107fb576107fa611231565b5b906000526020600020906002020190508060010160009054906101000a900467ffffffffffffffff1667ffffffffffffffff1694508060010160089054906101000a900463ffffffff1663ffffffff16935080600101600c9054906101000a900463ffffffff1663ffffffff1692508060010160109054906101000a900461ffff1661ffff169150806000015495505091939590929450565b60045481565b6108a2610a43565b73ffffffffffffffffffffffffffffffffffffffff166108c0610516565b73ffffffffffffffffffffffffffffffffffffffff1614610916576040517f08c379a000000000000000000000000000000000000000000000000000000000815260040161090d90611022565b60405180910390fd5b600073ffffffffffffffffffffffffffffffffffffffff168173ffffffffffffffffffffffffffffffffffffffff161415610986576040517f08c379a000000000000000000000000000000000000000000000000000000000815260040161097d90610fe2565b60405180910390fd5b8073ffffffffffffffffffffffffffffffffffffffff1660008054906101000a900473ffffffffffffffffffffffffffffffffffffffff1673ffffffffffffffffffffffffffffffffffffffff167f8be0079c531659141344cd1fd0a4f28419497f9722a3daafe3b4186f6b6457e060405160405180910390a3806000806101000a81548173ffffffffffffffffffffffffffffffffffffffff021916908373ffffffffffffffffffffffffffffffffffffffff16021790555050565b600033905090565b600260008373ffffffffffffffffffffffffffffffffffffffff1673ffffffffffffffffffffffffffffffffffffffff1681526020019081526020016000206000815480929190610a9b906111b9565b9190505550816003600083815260200190815260200160002060006101000a81548173ffffffffffffffffffffffffffffffffffffffff021916908373ffffffffffffffffffffffffffffffffffffffff160217905550600073ffffffffffffffffffffffffffffffffffffffff168373ffffffffffffffffffffffffffffffffffffffff1614610b7c57600260008473ffffffffffffffffffffffffffffffffffffffff1673ffffffffffffffffffffffffffffffffffffffff1681526020019081526020016000206000815480929190610b769061118f565b91905055505b808273ffffffffffffffffffffffffffffffffffffffff168473ffffffffffffffffffffffffffffffffffffffff167fddf252ad1be2c89b69c2b068fc378daa952ba7f163c4a11628f55a4df523b3ef60405160405180910390a4505050565b6000806040518060a001604052808881526020014267ffffffffffffffff1681526020018763ffffffff1681526020018663ffffffff1681526020018561ffff16815250905060018190806001815401808255809150506001900390600052602060002090600202016000909190919091506000820151816000015560208201518160010160006101000a81548167ffffffffffffffff021916908367ffffffffffffffff16021790555060408201518160010160086101000a81548163ffffffff021916908363ffffffff160217905550606082015181600101600c6101000a81548163ffffffff021916908363ffffffff16021790555060808201518160010160106101000a81548161ffff021916908361ffff1602179055505050600060018080549050610d0d91906110ec565b90507f0a5311bd2a6608f08a180df2ee7c5946819a649b204b554bb8e39825b2c50ad5848289898c604051610d46959493929190610f4d565b60405180910390a1610d5a60008583610a4b565b809250505095945050505050565b600081359050610d778161138f565b92915050565b600081359050610d8c816113a6565b92915050565b600060208284031215610da857610da7611260565b5b6000610db684828501610d68565b91505092915050565b60008060408385031215610dd657610dd5611260565b5b6000610de485828601610d68565b9250506020610df585828601610d7d565b9150509250929050565b600060208284031215610e1557610e14611260565b5b6000610e2384828501610d7d565b91505092915050565b610e3581611120565b82525050565b6000610e46826110d0565b610e5081856110db565b9350610e6081856020860161115c565b610e6981611265565b840191505092915050565b6000610e816022836110db565b9150610e8c82611276565b604082019050919050565b6000610ea46026836110db565b9150610eaf826112c5565b604082019050919050565b6000610ec76016836110db565b9150610ed282611314565b602082019050919050565b6000610eea6020836110db565b9150610ef58261133d565b602082019050919050565b6000610f0d6011836110db565b9150610f1882611366565b602082019050919050565b610f2c81611152565b82525050565b6000602082019050610f476000830184610e2c565b92915050565b600060a082019050610f626000830188610e2c565b610f6f6020830187610f23565b610f7c6040830186610f23565b610f896060830185610f23565b610f966080830184610f23565b9695505050505050565b60006020820190508181036000830152610fba8184610e3b565b905092915050565b60006020820190508181036000830152610fdb81610e74565b9050919050565b60006020820190508181036000830152610ffb81610e97565b9050919050565b6000602082019050818103600083015261101b81610eba565b9050919050565b6000602082019050818103600083015261103b81610edd565b9050919050565b6000602082019050818103600083015261105b81610f00565b9050919050565b60006020820190506110776000830184610f23565b92915050565b600060a0820190506110926000830188610f23565b61109f6020830187610f23565b6110ac6040830186610f23565b6110b96060830185610f23565b6110c66080830184610f23565b9695505050505050565b600081519050919050565b600082825260208201905092915050565b60006110f782611152565b915061110283611152565b92508282101561111557611114611202565b5b828203905092915050565b600061112b82611132565b9050919050565b600073ffffffffffffffffffffffffffffffffffffffff82169050919050565b6000819050919050565b60005b8381101561117a57808201518184015260208101905061115f565b83811115611189576000848401525b50505050565b600061119a82611152565b915060008214156111ae576111ad611202565b5b600182039050919050565b60006111c482611152565b91507fffffffffffffffffffffffffffffffffffffffffffffffffffffffffffffffff8214156111f7576111f6611202565b5b600182019050919050565b7f4e487b7100000000000000000000000000000000000000000000000000000000600052601160045260246000fd5b7f4e487b7100000000000000000000000000000000000000000000000000000000600052603260045260246000fd5b600080fd5b6000601f19601f8301169050919050565b7f43616e6e6f742073656e6420746f6b656e7320746f207468697320616464726560008201527f7373000000000000000000000000000000000000000000000000000000000000602082015250565b7f4f776e61626c653a206e6577206f776e657220697320746865207a65726f206160008201527f6464726573730000000000000000000000000000000000000000000000000000602082015250565b7f596f75206d757374206f776e2074686520746f6b656e00000000000000000000600082015250565b7f4f776e61626c653a2063616c6c6572206973206e6f7420746865206f776e6572600082015250565b7f4e6f7420656e6f75676820746f6b656e73000000000000000000000000000000600082015250565b61139881611120565b81146113a357600080fd5b50565b6113af81611152565b81146113ba57600080fd5b5056fea264697066735822122092a7dd70a03a6e612dbf19683e4cae01a64e6e23d23bbb4b0dc62ff723e0460664736f6c63430008060033",
  "immutableReferences": {},
  "source": "/// SPDX-License-Identifier: MIT\npragma solidity >=0.4.22 <0.9.0;\n\nimport \"./IERC721.sol\";\nimport \"../node_modules/@openzeppelin/contracts/access/Ownable.sol\";\n\ncontract Kittycontract is IERC721, Ownable{\n    \n    uint256 public constant CREATION_LIMIT_GEN0 = 10;\n    string constant _tokenName = \"CryptoKitties\";\n    string constant _tokenSymbol = \"NFCaT\";\n\n    event Birth(\n        address owner,\n        uint256 kittenId,\n        uint256 mumId,\n        uint256 dadId,\n        uint256 genes\n    );\n\n    struct Kitty{\n        uint256 genes;\n        uint64 birthTime;\n        uint32 mumId;\n        uint32 dadId;\n        uint16 generation;\n    }\n\n    Kitty[] kitties;\n\n    mapping(address => uint256) ownershipTokenCount;\n    mapping(uint256 => address) public kittyindexToOwner;\n\n    uint256 public gen0Counter;\n\n\n    function getKitty(uint256 _id) external view returns (\n        uint256 genes,\n        uint256 birthTime,\n        uint256 mumId,\n        uint256 dadId,\n        uint256 generation\n    )\n    {\n        Kitty storage kitty = kitties[_id];\n\n        \n        birthTime = uint256(kitty.birthTime);\n        mumId = uint256(kitty.mumId);\n        dadId = uint256(kitty.dadId);\n        generation = uint256(kitty.generation);\n        genes = kitty.genes;\n    } \n\n\n\n    function createKittyGen0(uint256 _genes) public onlyOwner returns (uint256) {\n        require(gen0Counter < CREATION_LIMIT_GEN0);\n\n        gen0Counter++;\n        \n        return _createKitty(0, 0, 0, _genes, msg.sender);\n    }\n\n    function _createKitty(\n        uint256 _genes,\n        uint256 _mumId,\n        uint256 _dadId,\n        uint256 _generation,\n        address _owner\n    ) internal returns (uint256){\n\n        Kitty memory _kitty = Kitty({\n            genes: _genes,\n            birthTime: uint64(block.timestamp),\n            mumId: uint32(_mumId),\n            dadId: uint32(_dadId),\n            generation: uint16(_generation)\n        });\n    \n       kitties.push(_kitty);\n\n       uint256 newKittenId = kitties.length - 1;\n\n       emit Birth(_owner, newKittenId, _mumId, _dadId, _genes);\n\n       _transfer(address(0), _owner, newKittenId);\n\n       return newKittenId;\n    }\n\n        \n\n    function balanceOf(address owner) external override view returns (uint256 balance){\n        return ownershipTokenCount[owner];\n    }\n\n    function totalSupply() public override view  returns (uint256 total){\n        return kitties.length;\n    }\n\n    function name() external override pure returns (string memory){return _tokenName;}\n\n    function symbol() external override pure returns (string memory){return _tokenSymbol;}\n\n    function ownerOf(uint256 tokenId) external view override returns (address){\n        return kittyindexToOwner[tokenId];\n    }\n\n    function transfer(address _to, uint256 _tokenId) external override{\n        require(_to != address(0), \"Cannot send tokens to this address\");\n        require(ownershipTokenCount[msg.sender]>0, \"Not enough tokens\");\n        require(kittyindexToOwner[_tokenId]==msg.sender, \"You must own the token\");\n    \n        _transfer(msg.sender, _to, _tokenId);\n    }\n\n    function _transfer(address _from, address _to, uint256 _tokenId) internal {\n\n        ownershipTokenCount[_to]++;\n        kittyindexToOwner[_tokenId] = _to;\n        \n        if(_from !=address(0)){\n        ownershipTokenCount[_from]--;\n\n        }\n        emit Transfer(_from, _to, _tokenId);\n    }\n}",
  "sourcePath": "/Users/aliii/Desktop/academy-kitties-template/contracts/CatFactoryContract.sol",
  "compiler": {
    "name": "solc",
    "version": "0.8.6+commit.11564f7e.Emscripten.clang"
  },
  "schemaVersion": "3.4.1",
  "updatedAt": "2021-07-27T18:00:37.453Z",
  "networkType": "ethereum",
  "devdoc": {
    "kind": "dev",
    "methods": {
      "balanceOf(address)": {
        "details": "Returns the number of tokens in ``owner``'s account."
      },
      "owner()": {
        "details": "Returns the address of the current owner."
      },
      "ownerOf(uint256)": {
        "details": "Returns the owner of the `tokenId` token. Requirements: - `tokenId` must exist."
      },
      "renounceOwnership()": {
        "details": "Leaves the contract without owner. It will not be possible to call `onlyOwner` functions anymore. Can only be called by the current owner. NOTE: Renouncing ownership will leave the contract without an owner, thereby removing any functionality that is only available to the owner."
      },
      "transferOwnership(address)": {
        "details": "Transfers ownership of the contract to a new account (`newOwner`). Can only be called by the current owner."
      }
    },
    "version": 1
  },
  "userdoc": {
    "kind": "user",
    "methods": {},
    "version": 1
  }
}